:020000040800F2
:1000000000000220D5BA000881B400088FB40008AF
:1000100095B400089BB40008A1B4000800000000DB
:10002000000000000000000000000000A7B400086D
:10003000B5B4000800000000C3B40008D1B4000843
:1000400025BB000825BB000825BB0008DDB400085F
:1000500025BB000825BB000825BB000825BB000800
:1000600025BB000825BB000825BB000825BB0008F0
:1000700025BB000825BB000825BB000825BB0008E0
:1000800025BB000825BB000825BB000825BB0008D0
:1000900025BB000825BB000825BB000825BB0008C0
:1000A00025BB0008F1B4000805B5000825BB000811
:1000B00025BB000825BB000825BB000825BB0008A0
:1000C00025BB000825BB000825BB000825BB000890
:1000D00025BB000825BB000825BB000825BB000880
:1000E00025BB000825BB000825BB000825BB000870
:1000F00025BB000825BB000825BB000825BB000860
:1001000025BB000819B5000825BB000825BB000861
:1001100025BB000825BB000825BB000825BB00083F
:100120002DB5000825BB000825BB000841B5000817
:1001300025BB000825BB000825BB000825BB00081F
:1001400025BB000825BB000825BB000855B50008E5
:1001500025BB000869B5000825BB000825BB0008C1
:1001600025BB000825BB000825BB000825BB0008EF
:1001700025BB000825BB000825BB000800000000C7
:0801800025BB000825BB0008A7
:1001900010B5054C237833B9044B13B10448AFF3C1
:1001A00000800123237010BD980300200000000090
:1001B000F4E7010808B5034B1BB103490348AFF34B
:1001C000008008BD000000009C030020F4E7010847
:1001D000034613F8012B002AFBD1181A0138704787
:1001E00001F0FF01102A2BDB10F0070F08D010F8E8
:1001F000013B013A8B422DD010F0070F42B3F6D1EC
:10020000F0B441EA012141EA014122F007047FF004
:1002100000070023F0E80256083C85EA010586EA5B
:10022000010685FA47F5A3FA87F586FA47F6A5FA97
:1002300087F68EB9EED1F0BC01F0FF0102F00702A3
:1002400032B110F8013B013A83EA010313B1F8D14E
:100250000020704701387047002D06BF354603382F
:10026000073815F0010F07D1013015F4807F02BF68
:10027000013015F4C03F0130F0BC0138704700BFB9
:1002800081F0004102E000BF83F0004330B54FEA47
:1002900041044FEA430594EA050F08BF90EA020FB4
:1002A0001FBF54EA000C55EA020C7FEA645C7FEA47
:1002B000655C00F0E2804FEA5454D4EB5555B8BF6A
:1002C0006D420CDD2C4480EA020281EA030382EADB
:1002D000000083EA010180EA020281EA0303362D6D
:1002E00088BF30BD11F0004F4FEA01314FF4801C40
:1002F0004CEA113102D0404261EB410113F0004F52
:100300004FEA03334CEA133302D0524263EB430308
:1003100094EA050F00F0A780A4F10104D5F1200EA6
:100320000DDB02FA0EFC22FA05F2801841F1000101
:1003300003FA0EF2801843FA05F359410EE0A5F1D5
:1003400020050EF1200E012A03FA0EFC28BF4CF006
:10035000020C43FA05F3C01851EBE37101F00045BC
:1003600007D54FF0000EDCF1000C7EEB00006EEBC9
:100370000101B1F5801F1BD3B1F5001F0CD3490853
:100380005FEA30004FEA3C0C04F101044FEA4452AA
:1003900012F5800F80F09A80BCF1004F08BF5FEA31
:1003A000500C50F1000041EB045141EA050130BD11
:1003B0005FEA4C0C404141EB010111F4801FA4F1B4
:1003C0000104E9D191F0000F04BF01460020B1FA09
:1003D00081F308BF2033A3F10B03B3F120020CDA41
:1003E0000C3208DD02F1140CC2F10C0201FA0CF01F
:1003F00021FA02F10CE002F11402D8BFC2F1200C84
:1004000001FA02F120FA0CFCDCBF41EA0C01904039
:10041000E41AA2BF01EB0451294330BD6FEA040482
:100420001F3C1CDA0C340EDC04F11404C4F120026D
:1004300020FA04F001FA02F340EA030021FA04F37F
:1004400045EA030130BDC4F10C04C4F1200220FAD6
:1004500002F001FA04F340EA0300294630BD21FA14
:1004600004F0294630BD94F0000F83F4801306BFDA
:1004700081F480110134013D4EE77FEA645C18BFCE
:100480007FEA655C29D094EA050F08BF90EA020F65
:1004900005D054EA000C04BF1946104630BD91EA5D
:1004A000030F1EBF0021002030BD5FEA545C05D160
:1004B0004000494128BF41F0004130BD14F580049F
:1004C0003CBF01F5801130BD01F0004545F0FE4113
:1004D00041F470014FF0000030BD7FEA645C1ABF48
:1004E000194610467FEA655C1CBF0B46024650EA7F
:1004F000013406BF52EA033591EA030F41F40021AB
:1005000030BD00BF90F0000F04BF0021704730B530
:100510004FF4806404F132044FF000054FF0000105
:1005200050E700BF90F0000F04BF0021704730B5C6
:100530004FF4806404F1320410F0004548BF40429B
:100540004FF000013EE700BF42004FEAE2014FEAF0
:1005500031014FEA02701FBF12F07F4393F07F4FCB
:1005600081F06051704732F07F4208BF704793F0CE
:100570007F4F04BF41F40021704730B54FF46074E1
:1005800001F0004521F000411CE700BF50EA0102E4
:1005900008BF704730B54FF000050AE050EA01028D
:1005A00008BF704730B511F0004502D5404261EBFD
:1005B00041014FF4806404F132045FEA915C3FF43E
:1005C000D8AE4FF003025FEADC0C18BF03325FEADB
:1005D000DC0C18BF033202EBDC02C2F1200300FA8C
:1005E00003FC20FA02F001FA03FE40EA0E0021FAB1
:1005F00002F11444BDE600BF70B54FF0FF0C4CF49F
:10060000E06C1CEA11541DBF1CEA135594EA0C0F50
:1006100095EA0C0F00F0DEF82C4481EA030621EA8B
:100620004C5123EA4C5350EA013518BF52EA0335C6
:1006300041F4801143F4801338D0A0FB02CE4FF078
:100640000005E1FB02E506F00042E0FB03E54FF0A8
:100650000006E1FB03569CF0000F18BF4EF0010EA0
:10066000A4F1FF04B6F5007F64F5407404D25FEA9C
:100670004E0E6D4146EB060642EAC62141EA55514F
:100680004FEAC52040EA5E504FEACE2EB4F1FD0C91
:1006900088BFBCF5E06F1ED8BEF1004F08BF5FEA0F
:1006A000500E50F1000041EB045170BD06F00046C1
:1006B00046EA010140EA020081EA0301B4EB5C046E
:1006C000C2BFD4EB0C0541EA045170BD41F4801166
:1006D0004FF0000E013C00F3AB8014F1360FDEBF8B
:1006E000002001F0004170BDC4F10004203C35DA67
:1006F0000C341BDC04F11404C4F1200500FA05F3EA
:1007000020FA04F001FA05F240EA020001F000428A
:1007100021F0004110EBD37021FA04F642EB060100
:100720005EEA430E08BF20EAD37070BDC4F10C042A
:10073000C4F1200500FA04F320FA05F001FA04F2EE
:1007400040EA020001F0004110EBD37041F10001DA
:100750005EEA430E08BF20EAD37070BDC4F12005E5
:1007600000FA05F24EEA020E20FA04F301FA05F24D
:1007700043EA020321FA04F001F0004121FA04F2F5
:1007800020EA020000EBD3705EEA430E08BF20EAC5
:10079000D37070BD94F0000F0FD101F000464000FF
:1007A00041EB010111F4801F08BF013CF7D041EA81
:1007B000060195F0000F18BF704703F00046520085
:1007C00043EB030313F4801F08BF013DF7D043EA56
:1007D0000603704794EA0C0F0CEA135518BF95EA0C
:1007E0000C0F0CD050EA410618BF52EA4306D1D193
:1007F00081EA030101F000414FF0000070BD50EAB2
:10080000410606BF1046194652EA430619D094EA3B
:100810000C0F02D150EA013613D195EA0C0F05D125
:1008200052EA03361CBF104619460AD181EA030179
:1008300001F0004141F0FE4141F470014FF0000031
:1008400070BD41F0FE4141F4780170BD70B54FF0CC
:10085000FF0C4CF4E06C1CEA11541DBF1CEA13554C
:1008600094EA0C0F95EA0C0F00F0A7F8A4EB05042E
:1008700081EA030E52EA03354FEA013100F0888025
:100880004FEA03334FF0805545EA131343EA1263EE
:100890004FEA022245EA111545EA10654FEA0026A3
:1008A0000EF000419D4208BF964244F1FD0404F55C
:1008B000407402D25B084FEA3202B61A65EB0305B8
:1008C0005B084FEA32024FF480104FF4002CB6EB75
:1008D000020E75EB030E22BFB61A754640EA0C00F5
:1008E0005B084FEA3202B6EB020E75EB030E22BF35
:1008F000B61A754640EA5C005B084FEA3202B6EB76
:10090000020E75EB030E22BFB61A754640EA9C0034
:100910005B084FEA3202B6EB020E75EB030E22BF04
:10092000B61A754640EADC0055EA060E18D04FEAC2
:10093000051545EA16754FEA06164FEAC30343EA62
:1009400052734FEAC2025FEA1C1CC0D111F4801F2F
:100950000BD141EA00014FF000004FF0004CB6E728
:1009600011F4801F04BF01430020B4F1FD0C88BFC7
:10097000BCF5E06F3FF6AFAEB5EB030C04BFB6EBD2
:10098000020C5FEA500C50F1000041EB045170BDC5
:100990000EF0004E4EEA113114EB5C04C2BFD4EBF2
:1009A0000C0541EA045170BD41F480114FF0000E76
:1009B000013C90E645EA060E8DE60CEA135594EAF2
:1009C0000C0F08BF95EA0C0F3FF43BAF94EA0C0FF5
:1009D0000AD150EA01347FF434AF95EA0C0F7FF46A
:1009E00025AF104619462CE795EA0C0F06D152EABE
:1009F00003353FF4FDAE1046194622E750EA4106A2
:100A000018BF52EA43067FF4C5AE50EA41047FF4B2
:100A10000DAF52EA43057FF4EBAE12E74FF0FF3C17
:100A200006E000BF4FF0010C02E000BF4FF0010CE8
:100A30004DF804CD4FEA410C7FEA6C5C4FEA430C61
:100A400018BF7FEA6C5C1BD001B050EA410C0CBFB0
:100A500052EA430C91EA030F02BF90EA020F002012
:100A6000704710F1000F91EA030F58BF994208BF79
:100A700090422CBFD8176FEAE37040F00100704736
:100A80004FEA410C7FEA6C5C02D150EA013C07D18D
:100A90004FEA430C7FEA6C5CD6D152EA033CD3D0D8
:100AA0005DF8040B704700BF8446104662468C46D2
:100AB0001946634600E000BF01B5FFF7B7FF002805
:100AC00048BF10F1000F01BD4DF808EDFFF7F4FF2E
:100AD0000CBF012000205DF808FB00BF4DF808EDB9
:100AE000FFF7EAFF34BF012000205DF808FB00BFDC
:100AF0004DF808EDFFF7E0FF94BF012000205DF8FE
:100B000008FB00BF4DF808EDFFF7CEFF94BF0120B2
:100B100000205DF808FB00BF4DF808EDFFF7C4FFAB
:100B200034BF012000205DF808FB00BF4FEA410CF4
:100B30007FEA6C5C02D150EA013C0AD14FEA430CD7
:100B40007FEA6C5C02D152EA033C02D14FF0000014
:100B500070474FF0010070474FEA410212F5001252
:100B600015D211D56FF47873B3EB625212D94FEAF4
:100B7000C12343F0004343EA505311F0004F23FADE
:100B800002F018BF404270474FF00000704750EA33
:100B9000013005D111F0004008BF6FF000407047F0
:100BA0004FF00000704700BF4A0011D212F500124A
:100BB00011D20DD56FF47873B3EB62520ED44FEAB5
:100BC000C12343F0004343EA505323FA02F0704735
:100BD0004FF00000704750EA013002D14FF0FF3073
:100BE00070474FF0000070474FEA4102B2F1E04316
:100BF00024BFB3F5001CDCF1FE5C0DD901F0004C04
:100C00004FEAC0024CEA5070B2F1004F40EB830053
:100C100008BF20F00100704711F0804F21D113F17F
:100C20003872BCBF01F00040704741F480114FEAB8
:100C30005252C2F11802C2F1200C10FA0CF320FA41
:100C400002F018BF40F001004FEAC1234FEAD3235E
:100C500003FA0CFC40EA0C0023FA02F34FEA4303C8
:100C6000CCE77FEA625307D150EA01331EBF4FF051
:100C7000FE4040F44000704701F0004040F0FE406C
:100C800040F40000704700BF53B94AB9002908BFBB
:100C900000281CBF4FF0FF314FF0FF3000F072B959
:100CA000ADF1080C6DE904CE00F006F8DDF804E0C3
:100CB000DDE9022304B070472DE9F047089E0446A1
:100CC0008846002B4BD18A42154667D9B2FA82F288
:100CD0004AB1C2F1200701FA02F320FA07F7954062
:100CE00047EA030894404FEA154E230CB8FBFEF781
:100CF0001FFA85FC0EFB178843EA084307FB0CF13B
:100D0000994209D9EB1807F1FF3080F01B81994215
:100D100040F21881023F2B445B1AA4B2B3FBFEF0F1
:100D20000EFB103344EA034400FB0CFCA44509D934
:100D30002C1900F1FF3380F00781A44540F20481B3
:100D400002382C4440EA0740A4EB0C0400271EB1F3
:100D5000D4400023C6E900433946BDE8F0878B4202
:100D600009D9002E00F0EB800027C6E900013846C3
:100D70003946BDE8F087B3FA83F7002F47D18B429D
:100D800002D3824200F2FA80841A61EB030301204D
:100D90009846002EE0D0C6E90048DDE702B9FFDE44
:100DA000B2FA82F2002A40F08F80491B4FEA154EBA
:100DB0001FFA85F80127B1FBFEFC230C0EFB1C116A
:100DC00043EA014308FB0CF1994207D9EB180CF1F7
:100DD000FF3002D2994200F2CD808446591AA3B264
:100DE000B1FBFEF00EFB101443EA044408FB00F8CC
:100DF000A04507D92C1900F1FF3302D2A04500F21B
:100E0000B6801846A4EB080440EA0C409FE7C7F1FF
:100E1000200CBB4022FA0CFE4EEA030E01FA07F446
:100E200020FA0CF521FA0CF34FEA1E482543B3FBD8
:100E3000F8F92C0C08FB19331FFA8EFA44EA034325
:100E400009FB0AF49C4202FA07F200FA07F10BD9F7
:100E50001EEB030309F1FF3080F087809C4240F2D3
:100E60008480A9F1020973441B1BADB2B3FBF8F0F7
:100E700008FB103345EA034400FB0AFAA24508D9EF
:100E80001EEB040400F1FF336BD2A24569D902388E
:100E9000744440EA0940A0FB0289A4EB0A044C45D3
:100EA000C2464B4654D351D0002E69D0B1EB0A054F
:100EB00064EB030404FA0CFCFD40FC404CEA05051D
:100EC000C6E90054002747E7C2F1200320FA03F7E0
:100ED000954001FA02F021FA03F34FEA154E384328
:100EE000010CB3FBFEF71FFA85F80EFB173341EA3E
:100EF000034107FB08F38B4204FA02F407D969188F
:100F000007F1FF3C2FD28B422DD9023F2944CB1A47
:100F100081B2B3FBFEF00EFB103341EA034100FB4C
:100F200008F38B4207D9691800F1FF3C17D28B42B6
:100F300015D902382944C91A40EA07473BE7374622
:100F4000304609E70746E7E61846FBE64145ABD2DF
:100F5000B8EB020A69EB0E0201381346A4E76046BB
:100F6000E9E7184695E76746D1E781467CE702380E
:100F70002C4447E7ACF1020C2B442FE7384608E736
:100F80003746E9E6704700BF80B584B000AF3B4606
:100F900000221A605A609A60DA602F4B2F4A1A605A
:100FA0002D4B00225A602C4B00229A602A4B0122C2
:100FB0001A61294B01221A76274B002283F8202040
:100FC000254B0022DA62244B254A9A62224B0022EA
:100FD000DA60214B0322DA611F4B012283F83020B3
:100FE0001D4B00225A611C480AF032FE0346002BBA
:100FF00001D008F0C1FE00233B6001237B60072382
:10100000BB603B46194614480AF06CFF0346002BB0
:1010100001D008F0B1FE03233B6002237B603B4616
:1010200019460D480AF05EFF0346002B01D008F078
:10103000A3FE10233B6003237B603B461946064812
:101040000AF050FF0346002B01D008F095FE00BFC8
:101050001037BD4680BD00BF3C0600200020014087
:101060000100000F80B58AB000AF786007F114036B
:1010700000221A605A609A60DA601A617B681B6805
:101080002F4A934257D100233B612E4B5B6C2D4A74
:1010900043F4807353642B4B5B6C03F480733B61AC
:1010A0003B690023FB60274B1B6B264A43F001037F
:1010B0001363244B1B6B03F00103FB60FB680923E4
:1010C0007B610323BB610023FB6107F11403194615
:1010D0001D480CF0A9F91D4B1D4A1A601B4B00223C
:1010E0005A601A4B00229A60184B0022DA60174BA4
:1010F0004FF480621A61154B4FF400625A61134B32
:101100004FF400529A61114B4FF48072DA610F4B29
:1011100000221A620D4B00225A620C480BF0C4FAEE
:101120000346002B01D008F027FE7B68074A9A632C
:10113000064A7B68936300BF2837BD4680BD00BF69
:1011400000200140003802400000024084060020D8
:101150001064024080B487B000AF3B1D83E80700F5
:101160000023FB75BB68032B05DDBB68082B02DC85
:101170000123FB7510E0BB68032B05D1FB68152B21
:1011800002DD0123FB7507E0BB68092B04D1FB6876
:10119000162B01DC0123FB75FB7D18461C37BD4671
:1011A0005DF8047B704784B080B483B000AF07F172
:1011B000100C8CE80F000123FB713B7C1A467B6A04
:1011C0009A4207DD3B7C1A463B6B9A4202DA0023C7
:1011D000FB7118E03B7C1A467B6A9A4207D17B7C04
:1011E0001A46BB6A9A4202DB0023FB710BE03B7C90
:1011F0001A463B6B9A4206D17B7C1A467B6B9A421D
:1012000001DC0023FB71FB7918460C37BD465DF805
:10121000047B04B07047000090B583B000AF87ED49
:10122000000B0AE04FF000020E4BD7E90001FFF778
:101230002BF803460C46C7E900344FF00002094B77
:10124000D7E90001FFF768FC0346002BEAD1D7E994
:10125000003444EC173BB0EE470AF0EE670A0C3757
:10126000BD4690BD0080764090B486B000AF7860F7
:1012700039603B68174A82FB03121A44D212DB170B
:10128000D31AFB60FB68144A02FB03F23B68134469
:10129000124A82FB03121A445211DB17D31A3B6124
:1012A000FB680D4A02FB03F23B68D1183A6913460A
:1012B00012019B1A9B000B447B617B681C4607F163
:1012C0000C0393E8070084E8070078681837BD46E8
:1012D00090BC7047C5B3A291F0F1FFFF8988888860
:1012E00080B483B000AF78607B6803F00303002B09
:1012F0001CD17A68114B83FB02135911D317CB1AF7
:10130000642101FB03F3D31A002B0DD17A680B4B38
:1013100083FB0213D911D317CB1A4FF4C87101FB09
:1013200003F3D31A002B01D1012300E00023DBB229
:1013300018460C37BD465DF8047B70471F85EB519E
:1013400090B58DB000AF3B1D83E807007B68FB6163
:10135000BB68BB61FB687B614FF000034FF000048A
:10136000C7E90A3400237B621FE0786AFFF7B8FF01
:101370000346002B0BD03AA3D3E90023D7E90A0197
:10138000FEF784FF03460C46C7E90A340AE036A399
:10139000D3E90023D7E90A01FEF778FF03460C469C
:1013A000C7E90A347B6A01337B627A6AFB699A4235
:1013B000DBDB00233B622FE0F869FFF791FF034678
:1013C000002B13D0244A3B6A13441B781846FFF7BE
:1013D00099F803460C461A462346D7E90A01FEF758
:1013E00055FF03460C46C7E90A3412E01B4A3B6A24
:1013F00013441B781846FFF785F803460C461A4637
:101400002346D7E90A01FEF741FF03460C46C7E928
:101410000A343B6A01333B62BB69013B3A6A9A4238
:10142000CADB7869FFF77EF803460C461A46234666
:10143000D7E90A01FEF72AFF03460C46C7E90A343A
:10144000D7E90A3444EC173BB0EE470AF0EE670ADE
:101450003437BD4690BD00BF0C00002000000020C6
:101460000000000000E076400000000000D0764060
:1014700082B090B589B000AF3C1D84E807007B6363
:101480003B1D93E80700FFF75BFF87ED060B07F1B5
:10149000340393E80700FFF753FF87ED040BD7E908
:1014A0000623D7E90401FEF7EFFE03460C4644ECA1
:1014B000173BB0EE470AF0EE670A2437BD46BDE899
:1014C000904002B07047000090B583B000AF87ED48
:1014D000000B0FA3D3E90023D7E90001FFF78CF835
:1014E00003460C4644EC173BB0EE470AF0EE670AA1
:1014F0001AF06EFFB0EE407AF0EE607AB0EE470A76
:10150000F0EE670A0C37BD4690BD00BFAFF3008018
:10151000399D52A246DF913F90B583B000AF87ED71
:10152000000B0FA3D3E90023D7E90001FFF764F80C
:1015300003460C4644EC173BB0EE470AF0EE670A50
:101540001AF08EFFB0EE407AF0EE607AB0EE470A05
:10155000F0EE670A0C37BD4690BD00BFAFF30080C8
:10156000399D52A246DF913F90B583B000AF87ED21
:10157000000B0FA3D3E90023D7E90001FFF73CF8E4
:1015800003460C4644EC173BB0EE470AF0EE670A00
:101590001AF086FEB0EE407AF0EE607AB0EE470ABE
:1015A000F0EE670A0C37BD4690BD00BFAFF3008078
:1015B000399D52A246DF913F90B583B000AF87EDD1
:1015C000000B97ED000B1AF0D3FF51EC100B08A3A2
:1015D000D3E90023FFF73AF903460C4644EC173BE6
:1015E000B0EE470AF0EE670A0C37BD4690BD00BF6B
:1015F000399D52A246DF913F90B583B000AF87ED91
:10160000000B97ED000B1AF05BFF51EC100B08A3D9
:10161000D3E90023FFF71AF903460C4644EC173BC5
:10162000B0EE470AF0EE670A0C37BD4690BD00BF2A
:10163000399D52A246DF913F90B583B000AF87ED50
:10164000000B09A3D3E90023D7E90001FFF7FEF857
:1016500003460C4644EC173BB0EE470AF0EE670A2F
:101660000C37BD4690BD00BF399D52A246DF913F69
:101670002DE9F043D3B002AF07F1300484ED000B45
:1016800007F1280484ED001B07F1200484ED002BF2
:1016900007F1140484E8070007F11002136040F218
:1016A0006B73FB640C233B651E237B6507F11403FE
:1016B0006C461A1D92E8030084E803001B6807F1DA
:1016C0004C0207CAFFF7D4FE87ED400B24A4D4E9EF
:1016D0000034C7E93E344FF000021F4BD7E93E010A
:1016E000FEF7D2FD03460C461A4623464FF0000093
:1016F0001A49FFF7ABF803460C46C7E93C344FF0F4
:1017000000034FF00004C7E94E344FF000034FF0E0
:101710000004C7E94C344FF000034FF00004C7E960
:101720004A344FF000034FF00004C7E93A34002375
:10173000C7F824310023C7F820310023C7F81C3133
:101740000023C7F818314FF000034FF00004C7E939
:10175000443400F01BBD00BF0000F03F00004E40CD
:10176000000000000018F540D7E94434C7E93834D8
:10177000E7A3D3E90023D7E94001FEF787FD03463D
:101780000C4618462146D7E93823FEF77FFD03466D
:101790000C4625461C4607F120014FF00002DA4BAB
:1017A000D1E90001FFF752F802460B4620462946D0
:1017B000FEF76AFD03460C46C7E93634A8A3D3E911
:1017C0000023D7E93601FEF75FFD03460C461846B5
:1017D0002146A5A3D3E90023FFF738F803460C46BA
:1017E000C7E93434A2A3D3E90023D7E93401FEF7D3
:1017F00003FF03460C46184621469FA3D3E9002366
:10180000FEF744FD03460C4618462146D7E934232B
:10181000FEF7F2FE03460C461846214698A3D3E98C
:101820000023FEF733FD03460C4644EC173BB0EEB5
:10183000470AF0EE670AFFF7EFFC87ED320B92A341
:10184000D3E90023D7E93401FEF7D6FE03460C4660
:101850001A4623468EA1D1E90001FEF715FD034685
:101860000C4618462146D7E93423FEF7C5FE034649
:101870000C461846214688A3D3E90023FEF706FD4F
:1018800003460C46C7E9303485A3D3E90023D7E9E2
:101890003401FEF7B1FE03460C461846214682A3EA
:1018A000D3E90023FEF7F2FC03460C461846214616
:1018B000D7E93423FEF7A0FE03460C461A4623461A
:1018C0007BA1D1E90001FEF7DFFC03460C46C7E926
:1018D0002E3497ED300BFFF7F7FD56EC105B76A337
:1018E000D3E90023D7E93401FEF786FE03460C4610
:1018F0001846214672A3D3E90023FEF7C7FC03462E
:101900000C4618462146D7E93423FEF775FE0346F8
:101910000C461A4623466CA1D1E90001FEF7B4FC3F
:1019200003460C461A46234628463146FEF764FE17
:1019300003460C4625461C46D7E9300102460B46B5
:10194000FEF7A4FC02460B4643EC172BB0EE470A09
:10195000F0EE670AFFF7B8FD59EC108B5CA3D3E9F2
:101960000023D7E93401FEF747FE02460B465AA191
:10197000D1E90001FEF788FC02460B464046494685
:10198000FEF73AFE02460B4620462946FEF77EFC4D
:1019900003460C4625461C464FF000025B4BD7E938
:1019A0003001FEF729FE02460B4643EC172BB0EE42
:1019B000470AF0EE670AFFF787FD51EC100B48A3CA
:1019C000D3E90023FEF718FE02460B4620462946BF
:1019D000FEF75CFC03460C46C7E92C34D7E92C2300
:1019E000D7E93201FEF752FC03460C46C7E92A3418
:1019F0003DA3D3E90023D7E92A01FEF745FC0346BE
:101A00000C4625461C463AA3D3E90023D7E9340106
:101A1000FEF7F2FD02460B4637A1D1E90001FEF7C1
:101A200033FC02460B4643EC172BB0EE470AF0EEB0
:101A3000670AFFF749FD51EC100B31A3D3E90023EE
:101A4000FEF7DAFD02460B4620462946FEF71CFC4F
:101A500003460C46C7E928345EE000BFAFF30080C0
:101A6000000000802CB4424100000000A0D5E140FD
:101A7000C0AB8A15DADE333F2F8672A21894E1409C
:101A800046CEC29E768771400CDB60F25025243F23
:101A90002AC6F99BE193E140C91F0C3C7758764078
:101AA00000D864FC6001813E03E35F521C0A063FDC
:101AB00080035D72111C913FB75F3E59315CED3E72
:101AC000AEF36F97FDBA733FF6B2EDB435A2FE3FA9
:101AD000E31A9FC9FE791A3F958098840B79943F49
:101AE0002C616D8C9DF0323F1FBAA0BE654E773FD2
:101AF000068195438B389E40C3F5285C8F425F403A
:101B0000F94ECC7A3194733F000038400000084011
:101B100000000040D56C42410FF20C43D3E9002392
:101B2000D7E93401FEF768FD03460C461A46234602
:101B3000FFA1D1E90001FEF7A7FB03460C461846BA
:101B40002146D7E93423FEF757FD03460C461846D5
:101B50002146F9A3D3E90023FEF798FB03460C4680
:101B600018462146D7E93423FEF746FD03460C46C6
:101B70001A462346F2A1D1E90001FEF785FB034690
:101B80000C46184621464FF00002E14BFEF75EFE80
:101B900003460C46184621464FF00002DD4BFEF787
:101BA00075FB03460C46184621464FF00002D84B01
:101BB000FEF74CFE03460C46184621464FF0000245
:101BC000D54BFEF763FB03460C46C7E92634C8A392
:101BD000D3E90023D7E93401FEF70EFD03460C4696
:101BE0001A462346C4A1D1E90001FEF74DFB034686
:101BF0000C4644EC173BB0EE470AF0EE670AFFF7DD
:101C0000B3FC51EC100BBEA3D3E90023FEF7F4FCA8
:101C100003460C461A462346D7E92601FEF736FB53
:101C200003460C46C7E9243497ED240BFFF74CFC20
:101C300055EC104B97ED280BFFF746FC53EC102B9F
:101C400020462946FEF7D8FC03460C4644EC173BD9
:101C5000B0EE470AF0EE670AFFF7AEFC87ED220B05
:101C60004FF000024FF08043D7E92401FEF7EEFD6C
:101C700003460C4644EC173BB0EE470AF0EE670A09
:101C8000FFF74AFC56EC105B4FF000024FF0804328
:101C9000D7E92401FEF7DAFD03460C4644EC173B76
:101CA000B0EE470AF0EE670AFFF736FC54EC103B43
:101CB0001A46234628463146FEF79EFC03460C464C
:101CC000C7E9203497ED300BFFF7FEFB54EC103BD7
:101CD0001A462346D7E92E01FEF78EFC03460C4632
:101CE000C7E91E34D7E9320102460B46FEF7CEFAA9
:101CF00003460C4644EC173BB0EE470AF0EE670A89
:101D0000FFF7E2FB51EC100BD7E92023FEF774FC40
:101D100003460C4625461C46D7E91E0102460B46E3
:101D2000FEF7B4FA02460B4620462946FEF7ACFA07
:101D300003460C4625461C464FF00002774BD7E978
:101D40002001FEF759FC02460B4610461946D7E91A
:101D50001E23FEF751FC02460B4690469946D7E9F2
:101D6000320102460B46FEF791FA02460B4643EC5F
:101D7000172BB0EE470AF0EE670AFFF7F5FB53ECBE
:101D8000102B40464946FEF737FC02460B462046DC
:101D90002946FEF77BFA03460C4625461C464FF0C3
:101DA00000025F4BD7E92001FEF726FC02460B46F6
:101DB00010461946D7E92023FEF71EFC02460B46C3
:101DC000904699464FF00002544BD7E93201FEF796
:101DD00013FC02460B4643EC172BB0EE470AF0EE1D
:101DE000670AFFF771FB53EC102B40464946FEF79C
:101DF00003FC02460B4620462946FEF745FA0346F9
:101E00000C4625461C464FF00002464BD7E92E01F2
:101E1000FEF7F2FB02460B4610461946D7E92E2381
:101E2000FEF7EAFB02460B4690469946D7E9300199
:101E300002460B46FEF72AFA02460B4643EC172BE6
:101E4000B0EE470AF0EE670AFFF73EFB53EC102BAB
:101E500040464946FEF7D0FB02460B46204629463F
:101E6000FEF712FA03460C4644EC173BB0EE470A65
:101E7000F0EE670AFFF7E0FB51EC100B4FF00002A9
:101E8000264BFEF7B9FB03460C46C7E91C349FED11
:101E90001E0BFFF769FB56EC105B07F1300393ED67
:101EA000000BFFF761FB59EC108B97ED220BFFF74E
:101EB0005BFB54EC103B1A46234640464946FEF76E
:101EC0009BFB03460C461A46234628463146FEF73E
:101ED000BDFC03460C4625461C4607F1300393ED36
:101EE000000BFFF719FB59EC108B97ED220B2BE041
:101EF000068195438B389E40C3F5285C8F425F4036
:101F0000F168E388B5F8643F5A643BDF4FB556404B
:101F100000004E4000003A400000374000001040F2
:101F20000000E03F0000F43FD61A4AED45B45D3FA3
:101F3000BEA4315A4755433FB81E85EB5168474010
:101F4000A69BC420B0723540FFF7E6FA53EC102B85
:101F500040464946FEF750FB02460B4620462946BE
:101F6000FEF792F903460C4644EC173BB0EE470AE5
:101F7000F0EE670AFFF740FB87ED1A0B07F1280127
:101F80004FF00002B44BD1E90001FEF735FB0346E8
:101F90000C461A4623464FF00000B049FEF774F98C
:101FA00003460C4618462146D7E91C23FEF76CF978
:101FB00003460C4625461C4607F120014FF000025F
:101FC000A74BD1E90001FEF717FB02460B4620465E
:101FD0002946FEF75BF903460C46184621464FF0AA
:101FE00000029F4BFEF708FB03460C46C7E9183476
:101FF000D7E94423D7E93E01FEF7FEFA03460C4633
:10200000C7E91634D7E91623D7E91801FEF73CF9DA
:1020100003460C461A46C7F8E82024F00043C7F8E8
:10202000EC30D7E94E23D7E93A01FEF757FD0346D6
:10203000002B0AD14FF000024FF00003D7E9440112
:10204000FEF742FD0346002B07D0D7E93A34C7E933
:102050004E34D7F82431C7F820314FF00002814BBD
:10206000D7E91A01FEF7C8FA03460C4644EC173BC1
:10207000B0EE470AF0EE670A1AF060F954EC103B34
:102080001A462346D7E91801FEF7FEF803460C4628
:1020900018462146D7E91623FEF7F6F803460C4604
:1020A0001A46C7F8E82024F00043C7F8EC30D7E917
:1020B0004A23D7E93A01FEF711FD0346002B0AD166
:1020C0004FF000024FF00003D7E94401FEF7FCFC9B
:1020D0000346002B07D0D7E93A34C7E94A34D7F88A
:1020E0002431C7F81C314FF000025E4BD7E91A01CA
:1020F000FEF782FA03460C4644EC173BB0EE470A63
:10210000F0EE670A1AF01AF951EC100BD7E9182310
:10211000FEF7BCF803460C4618462146D7E91623BD
:10212000FEF7B2F803460C461A46C7F8E82024F03A
:102130000043C7F8EC30D7E94C23D7E93A01FEF762
:10214000CDFC0346002B0AD14FF000024FF00003F4
:10215000D7E94401FEF7B8FC0346002B07D0D7E9C6
:102160003A34C7E94C34D7F82431C7F81831D7E9E5
:102170003C23D7E94401FEF789F803460C46C7E93A
:102180004434D7F824313C33C7F824314FF00002EF
:10219000354BD7E94401FEF7ABFC0346002B7FF437
:1021A000E3AA002387F80F3197F86831002B08D095
:1021B00007F1140393E80700FEF7CCFF034687F806
:1021C0000F31D7F860413B46D7F820111846FFF78A
:1021D0004BF83A46234607CA83E80700D7F8603130
:1021E0001A6897F80F311A44D7F860311A6007F16E
:1021F00010031C683B46D7F81C111846FFF734F84B
:102200003A46234607CA83E8070007F110031B6814
:102210001A6897F80F311A4407F110031B681A6007
:10222000D7F864413B46D7F818111846FFF71CF859
:102230003A46234607CA83E80700D7F864311A688C
:1022400097F80F311A44D7F864311A6000BF07F5C8
:10225000A277BD46BDE8F0830000104000808640B4
:1022600000004E4000006E400000F03F80B582B09C
:1022700000AF00237B60144B1B6B134A43F48003B5
:102280001363114B1B6B03F480037B607B6800229C
:10229000002138200AF0C3F938200AF0DCF90022C6
:1022A00000213B200AF0BBF93B200AF0D4F90022C0
:1022B000002145200AF0B3F945200AF0CCF900BF0F
:1022C0000837BD4680BD00BF0038024080B58AB0E7
:1022D00000AF06237B8406233B840023FB8400237A
:1022E000FB830023BB834FF6FF73BB8400237B611A
:1022F0009F4B1B887B849F4B1B883B8400233B6048
:102300000A23BB600123FB6002233B617B8C4EF6FA
:10231000EE62934257D04FF6FF72934203D0002BE8
:1023200000F0F4808DE13B8C002B16D1904800F03A
:10233000A9F90346002B40F08E8107F114023B46B9
:10234000114618460AF04EFF0346FB76FB7E002B33
:1023500000F08181FB7E9BB285E13B8C4EF6EE6204
:10236000934225D1824800F08DF90346002B0ED10F
:1023700007F114023B46114618460AF033FF0346A4
:10238000FB76FB7E002B02D0FB7E9BB26BE14FF015
:1023900000024FF00003774901200AF07FFD034659
:1023A000FB76FB7E002B00F05681FB7E9BB25AE150
:1023B00000F0F8F90346FB76FB7E002B00F04B8122
:1023C000FB7E9BB24FE13B8C002B63D10023FB844F
:1023D00030E0694B1B889AB2FB8C684931F81330A6
:1023E0009A4201D1FB8CBB84FA8CB7F924309A4213
:1023F0001DD0FB8C614A32F813306149184600F059
:1024000067F90346BB83BB8B012B10D0FB8C5B4A67
:1024100032F813205A4B1B881946104600F05AFA1E
:102420000346FB83FB8B002B01D0FB8B1BE1FB8C5A
:102430000133FB84FB8C0A2BCBD94FF000024FF009
:1024400000034B4901200AF029FD0346FB76FB7E81
:10245000002B02D0FB7E9BB205E10B23BB60012366
:10246000FB6002233B61434800F00CF90346002B5C
:1024700040F0F38007F114023B46114618460AF07B
:10248000B1FE0346FB76FB7E002B00F0E680FB7E70
:102490009BB2E8E03B8C4FF6FF7293422BD10B23AB
:1024A000BB600123FB6002233B61324800F0EAF885
:1024B0000346002B0ED107F114023B461146184685
:1024C0000AF090FE0346FB76FB7E002B02D0FB7EDB
:1024D0009BB2C8E04FF000024FF0000324490120F6
:1024E0000AF0DCFC0346FB76FB7E002B00F0B58097
:1024F000FB7E9BB2B7E000F055F90346FB76FB7E0E
:10250000002B00F0AA80FB7E9BB2ACE03B8C002B42
:102510000AD100F047F90346FB76FB7E002B00F062
:102520009E80FB7E9BB29EE03B8C4FF6FF729342F7
:102530001BD10B23BB600123FB6002233B610D48D1
:1025400000F0A0F80346002B40F0898007F1140248
:102550003B46114618460AF045FE0346FB76FB7ED5
:10256000002B7CD0FB7E9BB27DE00023FB843AE015
:1025700000000C0800000E0806000C08E40600200D
:10258000B40300203A4B1B889AB2FB8C394931F8CE
:1025900013309A4201D1FB8CBB84FA8CB7F92430FA
:1025A0009A421DD0FB8C334A32F813303249184618
:1025B00000F08EF80346BB83BB8B012B10D0FB8C45
:1025C0002C4A32F813202C4B1B881946104600F079
:1025D00081F90346FB83FB8B002B01D0FB8B42E090
:1025E000FB8C0133FB84FB8C0A2BCBD94FF0000210
:1025F0004FF00003214901200AF050FC0346FB760E
:10260000FB7E002B02D0FB7E9BB22CE00A23BB603A
:102610000123FB6002233B61194800F033F80346B5
:10262000002B1CD107F114023B46114618460AF054
:10263000D9FD0346FB76FB7E002B10D0FB7E9BB2C0
:1026400011E000F0AFF80346FB76FB7E002B08D0CC
:10265000FB7E9BB207E000BF04E000BF02E000BFCA
:1026600000E000BF002318462837BD4680BD00BFEC
:1026700006000E08E4060020B403002000000E0847
:1026800000000C0880B485B000AF78600123FB60C7
:1026900045F255537B810DE07B681B887B817B89EC
:1026A0004FF6FF72934202D00023FB6006E07B6886
:1026B00004337B607B68054A9342EDD9FB689BB28B
:1026C00018461437BD465DF8047B7047FFFF0D08C0
:1026D00080B586B000AF03463960FB800023FB81E4
:1026E00045F25553BB810123FB821B4B3B611A4BC7
:1026F000BB60002000F0A8F80346FB81FB89AB2BF0
:1027000001D1AB2324E0FB8903F206435B04BB60E9
:10271000FB8901335A04114B13443B6112E03B69BE
:102720001B88BB81BA89FB889A4208D13B69023B6E
:102730001B889AB23B681A800023FB8207E03B6942
:10274000043B3B61BB6802333A699A42E7D8FB8A93
:1027500018461837BD4680BD00000C08FEFF0B0868
:1027600080B584B000AF03460A46FB801346BB80A9
:102770000023FB81BA88FB881146184600F0AAF8AE
:102780000346FB81FB89802B07D1BA88FB88114661
:10279000184600F0FDF80346FB81FB891846103708
:1027A000BD4680BD80B588B000AF0023FB77002315
:1027B000BB6100237B600A23FB6001233B61022392
:1027C0007B611F48FFF75EFF0346002B0DD107F129
:1027D00018023B1D114618460AF004FD0346FB771C
:1027E000FB7F002B01D0FB7F25E04FF000024FF074
:1027F0000003134901200AF051FB0346FB77FB7FDE
:10280000002B01D0FB7F16E00B23FB600D48FFF788
:1028100039FF0346002B0DD107F118023B1D11466D
:1028200018460AF0DFFC0346FB77FB7F002B01D044
:10283000FB7F00E0002318462037BD4680BD00BF67
:1028400000000C0800000E0880B485B000AF0346FD
:10285000FB710623FB810623BB811C4B1B88FB817C
:102860001B4B1B88BB81FB79002B1BD0012B25D177
:10287000BB89002B08D1FB894EF6EE62934201D151
:1028800000231CE001231AE0FB89002B08D1BB893F
:102890004EF6EE62934201D1012310E000230EE0D8
:1028A000AB230CE0FB89002B01D1002307E0BB899F
:1028B000002B01D1012302E0AB2300E000231846E6
:1028C0001437BD465DF8047B704700BF00000C085C
:1028D00000000E0890B587B000AF03460A46FB80A3
:1028E0001346BB800023FB7400233B82254B7B6196
:1028F000254BFB600120FFF7A7FF03463B823B8A85
:10290000AB2B01D1AB2338E03B8A03F206435B04D7
:102910007B613B8A01335A041C4B1344FB6027E064
:102920007B691B68B3F1FF3F1FD1BB884FF00004E8
:102930001A462346796901200AF0B0FA0346FB746F
:10294000FB7C002B02D0FB7C9BB216E07B69991CC0
:10295000FB884FF000041A46234601200AF09EFA35
:102960000346FB74FB7C9BB207E07B6904337B610D
:102970007A69FB689A42D3D3802318461C37BD4638
:1029800090BD00BF00000C0800000E08FFFF0B0800
:1029900080B58CB000AF03460A46FB801346BB806F
:1029A000002387F82730544BFB6200237B850023EC
:1029B000BB8400233B8500237B8400233B840023CE
:1029C000FB610020FFF740FF0346BB84BB8C012B5B
:1029D00004D1494BFB620B237B8509E0BB8C002BA8
:1029E00004D1464BFB620A237B8501E0AB237EE0EA
:1029F0004EF6EE624FF00003F96A01200AF04EFA3B
:102A0000034687F8273097F82730002B03D097F834
:102A100027309BB26BE0BA88FB8811461846FFF757
:102A200059FF03467B847B8C002B01D07B8C5EE0BE
:102A300000233B8527E03B8D314A32F81330FA887A
:102A40009A421DD03B8D2E4A32F813302D4918463C
:102A5000FFF73EFE03463B843B8C012B10D03B8DA1
:102A6000274A32F81320274B1B8819461046FFF7D8
:102A700031FF03467B847B8C002B01D07B8C36E0BE
:102A80003B8D01333B853B8D0A2BD4D90023BB60A2
:102A90007B8D3B6101237B610223BB6107F11C023B
:102AA00007F10803114618460AF09CFB034687F815
:102AB000273097F82730002B03D097F827309BB2A8
:102AC00015E04FF000024FF00003F96A01200AF010
:102AD000E5F9034687F8273097F82730002B03D015
:102AE00097F827309BB202E097F827309BB2184640
:102AF0003037BD4680BD00BF00000C0800000E0846
:102B0000E4060020B403002080B58CB000AF07F1CC
:102B10001C0300221A605A609A60DA601A6100236E
:102B2000BB61694B1B6B684A43F010031363664B30
:102B30001B6B03F01003BB61BB6900237B61624B1D
:102B40001B6B614A43F0040313635F4B1B6B03F081
:102B500004037B617B6900233B615B4B1B6B5A4A1F
:102B600043F080031363584B1B6B03F080033B61FE
:102B70003B690023FB60544B1B6B534A43F001033A
:102B80001363514B1B6B03F00103FB60FB680023D5
:102B9000BB604D4B1B6B4C4A43F0020313634A4B23
:102BA0001B6B03F00203BB60BB6800237B60464BDA
:102BB0001B6B454A43F008031363434B1B6B03F045
:102BC00008037B607B680022582140480AF0D8FE49
:102BD000002260213E480AF0D3FE01224FF47C41DE
:102BE0003A480AF0CDFE01224FF4804139480AF0FC
:102BF000C7FE01224FF4F85137480AF0C1FE4FF4E6
:102C00006173FB6100233B6201237B6207F11C03BC
:102C100019462E480AF008FC4FF65843FB61012381
:102C20003B6200237B620023BB6207F11C03194651
:102C300026480AF0F9FB6023FB6101233B62002375
:102C40007B620023BB6207F11C03194620480AF08F
:102C5000EBFB0123FB6100233B6201237B6207F155
:102C60001C0319461B480AF0DFFB4FF48043FB614D
:102C700001233B6200237B620023BB6207F11C033C
:102C8000194614480AF0D0FB4FF4F853FB610123B6
:102C90003B6200237B620023BB6207F11C031946E1
:102CA0000D480AF0C1FB8823FB6100233B6200232F
:102CB0007B6207F11C03194607480AF0B5FB00BF09
:102CC0003037BD4680BD00BF0038024000100240D2
:102CD0000000024000040240000C024080B500AF3A
:102CE000134B144A1A60124B4CF250325A60104B7C
:102CF00000229A600E4B0022DA600D4B4FF48042A6
:102D00001A610B4B00225A61094B00229A61084B51
:102D10000022DA61064B00221A6205480AF04AFED8
:102D20000346002B01D007F027F800BF80BD00BF8D
:102D3000FC0600200054004080B58AB000AF7860E7
:102D400007F1140300221A605A609A60DA601A616F
:102D50007B681B68254A934244D1254800F04EF811
:102D60000022C02123480AF00BFEC0237B6101230F
:102D7000BB610023FB6101233B6207F11403194689
:102D80001C480AF051FBC82008F040FF00233B61BB
:102D9000194B1B6B184A43F002031363164B1B6B52
:102DA00003F002033B613B69C0237B611223BB61DB
:102DB0000123FB6103233B6204237B6207F11403BD
:102DC00019460C480AF030FB0023FB600A4B1B6CD1
:102DD000094A43F400131364074B1B6C03F40013FC
:102DE000FB60FB6800BF2837BD4680BD0054004033
:102DF000FC060020000402400038024080B582B08A
:102E000000AF78607B681B68084A934209D1084B81
:102E10001B6C074A23F400131364C02105480AF011
:102E20009DFC00BF0837BD4680BD00BF0054004078
:102E3000003802400004024080B500AF094B0A4A46
:102E40001A60084B06225A60064B40F6FF729A60E1
:102E500004480BF036FD0346002B01D006F08CFF32
:102E600000BF80BD500700200030004080B58AB010
:102E700000AF0346FB80124BDB687B626023BB60C4
:102E80007B6A9BB2FA8812FB03F39BB20D4AA2FB4A
:102E900003235B099BB2FB6000233B610023BB6102
:102EA00007F108030022194605480FF039FB0021FD
:102EB00003480FF0EFF900BF2837BD4680BD00BFC3
:102EC000000A00201F85EB5190B583B000AFBB1DF9
:102ED00019460220FFF7FCFB0346002B02D09B485B
:102EE00008F060FAFB8807EE903AB8EE677AF2EEE7
:102EF000046AC7EE267A964BC3ED007A322008F0BA
:102F000085FEBB1D19460420FFF7E2FB0346002B9C
:102F100002D0904808F046FAFB8807EE903AB8EEE7
:102F2000677AF2EE046AC7EE267A8B4BC3ED007A1D
:102F3000322008F06BFEBB1D19460820FFF7C8FBC6
:102F40000346002B02D0854808F02CFAFB8807EED8
:102F5000903AB8EE677AF2EE046AC7EE267A804BB2
:102F6000C3ED007A322008F051FEBB1D19460A203D
:102F7000FFF7AEFB0346002B02D07A4808F012FAA6
:102F8000FB8807EE903AB8EE677AF2EE046AC7EE75
:102F9000267A754BC3ED007A322008F037FEBB1D50
:102FA00019460620FFF794FB0346002B02D06F481A
:102FB00008F0F8F9FB8807EE903AB8EE677AF2EE7F
:102FC000046AC7EE267A6A4BC3ED007A322008F015
:102FD0001DFEBB1D19460C20FFF77AFB0346002B94
:102FE00002D0644808F0DEF9FA88634B1A80322078
:102FF00008F00CFEBB1D19460E20FFF769FB0346C7
:10300000002B02D05D4808F0CDF9FB8807EE903A1E
:10301000B8EE677AF2EE046AC7EE267A584BC3ED33
:10302000007A322008F0F2FDBB1D19461020FFF790
:103030004FFB0346002B02D04E4808F0B3F9FA8844
:10304000504B1A80322008F0E1FDBB1D19461220BA
:10305000FFF73EFB0346002B02D04B4808F0A2F9D5
:10306000FA884A4B1A80322008F0D0FDBB1D194661
:103070001620FFF72DFB0346002B02D03B4808F03B
:1030800091F9FB8807EE903AB8EE677AF2EE046A9F
:10309000C7EE267A3E4BC3ED007A322008F0B6FD2B
:1030A000BB1D19461820FFF713FB0346002B02D067
:1030B000324808F077F9FB8807EE903AB8EE677A65
:1030C000F2EE046AC7EE267A324BC3ED007A322064
:1030D00008F09CFDBB1D19461A20FFF7F9FA0346BC
:1030E000002B02D02C4808F05DF9FB881846FDF74C
:1030F00009FA4FF00002294BFDF7A8FB03460C46E6
:10310000274AC2E90034322008F080FDBB1D194671
:103110001C20FFF7DDFA0346002B02D0214808F0FF
:1031200041F9FB881846FDF7EDF94FF000021B4B03
:10313000FDF78CFB03460C461B4AC2E900343220E3
:1031400008F064FD00BF0C37BD4690BD10E80108D3
:103150000808002018E801081008002020E80108ED
:103160006007002028E80108F807002030E801087F
:103170007807002038E80108F407002040E801083B
:1031800014080020CC07002048E801087007002040
:1031900074070020C807002050E801080000244000
:1031A0009007002058E801088807002080B400AF8D
:1031B0000C4B1B78002B02D00A4B00221A700A4BD2
:1031C0001B78002B02D0084B00221A70074B1B788B
:1031D000002B02D0054B00221A7000BFBD465DF8DF
:1031E000047B70473C000020C7030020C803002078
:1031F00080B586B000AF78600B46FB701346BB709D
:103200000023FB750CE0FB7D7A681A44FB7D127885
:1032100007F118010B4403F80C2CFB7D0133FB75FF
:10322000FA7DFB789A42EED9BB78002B1ED0FB7D4D
:1032300007F1180213442E2203F80C2CFB7D0133F6
:10324000BB750FE0FB7D7A681A44BB7D127807F1ED
:1032500018010B4403F80C2CFB7D0133FB75BB7D7F
:103260000133BB75BB7D042BECD912E0FB7DBB7534
:103270000CE0BB7D7A681A44BB7D127807F1180117
:103280000B4403F80C2CBB7D0133BB75BB7D032BBA
:10329000EFD9BB7D07F118021344002203F80C2C70
:1032A00007F10C03184608F07DF800BF1837BD463B
:1032B00080BD000080B483B000AF78600F4B012266
:1032C0001A700F4B1B78C3F10103DAB20C4B1A7062
:1032D0000C4B1B780133DAB20A4B1A70094B1B787E
:1032E000042B05D9084B01221A70064B00221A70D4
:1032F00000BF0C37BD465DF8047B7047B603002065
:10330000B7030020B80300201800002080B5ADF5F9
:10331000825D00AF07F120031C3B18603B4619603B
:1033200001224649464815F0D9FC034607F581526B
:1033300002F11F02137007F5815303F11F031B787D
:10334000002B0CD03F4808F02DF84FF47A7008F0AD
:103350005DFC07F5815303F11F031B7869E00A2028
:1033600008F054FC07F120031C3B07F1200018383B
:103370003222196815F0F8FC034607F5815202F174
:103380001F02137007F5815303F11F031B78002BF5
:103390000CD02D4808F006F84FF47A7008F036FC8F
:1033A00007F5815303F11F031B7842E00A2008F060
:1033B0002DFC3B461868FCF70BFF024607F58153CE
:1033C00003F11803394607F120001838096815F091
:1033D00097FE034607F5815202F11F02137007F5AD
:1033E000815303F11F031B78002B0CD0174807F003
:1033F000D9FF4FF47A7008F009FC07F5815303F107
:103400001F031B7815E00A2008F000FC07F12003D9
:10341000183B184616F086F80A2008F0F7FB012240
:103420000B49002015F05AFC07F5815303F11F03E7
:103430001B78184607F58257BD4680BD680A0020F4
:103440009C1A002060E8010868E8010870E801089B
:1034500078E8010884B0B0B5ADF5047D04AF3C1D3B
:10346000206007F5057080E80E00D7F828321B6849
:103470005A1CD7F828321A60D7F828321B684EF643
:103480004042934203D9D7F8283201221A60D7F874
:1034900028321B68012B39D13B1DDB7803F2BC724B
:1034A0003B1D5B781D463B1D9B7897F8141297F8DF
:1034B000150297F8164203940290019100932B464F
:1034C0001649D7F82C0217F0E3FB07F10803144A5A
:1034D0001846114665231A4616F0B2FE07F1080396
:1034E0001946D7F82C02FFF711FF034687F8FF3182
:1034F00097F8FF31002B06D00A4807F053FF4FF42E
:103500007A7008F083FB0A2008F080FB00BF07F503
:103510000077BD46BDE8B04004B070477CE80108C4
:10352000A4E801080CE9010880B483B000AF78601A
:103530000A4B1A880A4B1A80084B5A88084B5A8043
:10354000064B9A88064B9A80064B01221A7000BFE0
:103550000C37BD465DF8047B704700BFB8070020FC
:1035600098070020B90300202DE9F04FADF5555D17
:1035700081B018AF002307F5535202F10D0213700A
:10358000002307F5535202F10C021370002307F5D4
:10359000535202F10B021370002307F5525202F14D
:1035A0002A021380D94B1B6807F55252136000237F
:1035B00007F5525202F1280213804FF0000307F57D
:1035C000535202F1040213604FF0000307F5535207
:1035D0001360002307F5525202F13E0213804FF0B0
:1035E000000307F5525202F138021360002307F579
:1035F000525202F137021370002307F5525202F1C2
:1036000036021370002307F5525202F13402137090
:1036100007F1E003383B00221A60002307F55252FD
:1036200002F133021370002307F5525202F1270210
:103630001370012307F5525202F12002136007F1C3
:10364000A003243B00221A6007F1A0032C3B0022B8
:103650001A60002307F5525202F132021370002360
:1036600007F5525202F131021370012307F552524D
:1036700002F11F021370002307F5525202F12E02CD
:10368000138008F051FA06F0F5FAFFF73DFAFEF75D
:10369000EDFDFDF779FCFFF721FB06F043FD11F08E
:1036A000FBFA07F0F3FF07F0ABFF16F087F8FFF720
:1036B000C3FB08F00FF806F0A7FC95480EF09AFD42
:1036C000002194480EF0E6FD06F08EFE08F080F929
:1036D0000346002B08D0904807F064FE40F6B8304F
:1036E00008F094FA08F074F9C82008F08FFA06F090
:1036F0004BFB034607F5525202F11E02137007F509
:10370000525303F11E031B78002B08D0834807F0A7
:1037100049FE4FF47A7008F079FA06F035FB08F0AC
:103720009FF8034607F5525202F11E02137007F587
:10373000525303F11E031B78002B05D0052307F518
:10374000525202F136021370754B00221A707548FE
:1037500007F028FE4FF47A7008F058FA724807F024
:1037600021FE09F0EFFB322008F050FAFEF7AEFD23
:103770000346002B03D06D4807F014FEFEE742F22B
:103780005F511420FEF7ECFF0346002B03D068487E
:1037900007F008FEFEE707F5525303F10E03194642
:1037A0001420FEF795FF0346002B03D0614807F075
:1037B000F9FDFEE707F5525303F10E031B881A4685
:1037C00007F5525303F104035B49184617F060FAFA
:1037D00007F5525303F10403184607F0E3FD574879
:1037E0000BF0A8F8642008F011FA012154480DF0FC
:1037F0006FFB0346012B11D14FF4007151480AF0C1
:10380000A7F80346002B40F0FA804FF480714D4832
:103810000AF09EF80346002B40F0F18047480BF079
:1038200089F80122012146480DF038FB642102206D
:10383000FEF796FF0346002B03D0434807F0B2FD86
:10384000FEE7322008F0E2F94FF4C8710420FEF7D9
:1038500087FF0346002B03D03C4807F0A3FDFEE79B
:10386000322008F0D3F914210620FEF779FF034631
:10387000002B03D0364807F095FDFEE7322008F014
:10388000C5F900210820FEF76BFF0346002B03D08B
:10389000304807F087FDFEE7322008F0B7F94FF413
:1038A00048710A20FEF75CFF0346002B03D02A482C
:1038B00007F078FDFEE7322008F0A8F905210C207A
:1038C000FEF74EFF0346002B03D0244807F06AFDA5
:1038D000FEE7322008F09AF90A210E20FEF740FF99
:1038E0000346002B03D01E4807F05CFDFEE73220A4
:1038F00008F08CF900211020FEF732FF0346002B60
:1039000030D0174807F04EFDFEE700BF2CEB010852
:1039100080090020000A002014E901081CE90108C0
:10392000680A002024E901082CE9010834E90108AB
:103930003CE9010844E901084CE90108500700206E
:10394000180800200010024054E901085CE9010851
:1039500064E901086CE9010874E901087CE90108DF
:1039600084E90108322008F051F900211220FEF705
:10397000F7FE0346002B03D0AA4807F013FDFEE72D
:10398000322008F043F94FF4E1711620FEF7E8FE0B
:103990000346002B03D0A44807F004FDFEE73220C5
:1039A00008F034F94FF4FA711820FEF7D9FE0346F7
:1039B000002B03D09D4807F0F5FCFEE7322008F00D
:1039C00025F940F265111A20FEF7CAFE0346002BC6
:1039D00003D0974807F0E6FCFEE7322008F016F91E
:1039E00040F202211C20FEF7BBFE0346002B03D051
:1039F000904807F0D7FCFEE7322008F007F9FFF700
:103A000063FA8D4807F0CEFC4FF47A7008F0FEF8A8
:103A100011F00BFA0346012B20D107F5525303F1A5
:103A200034031B78002B19D14FF4FA7008F0EEF82C
:103A300011F0FBF90346012B10D107F5525303F1A6
:103A400034031B78002B09D14FF4FA7008F0DEF82C
:103A5000012307F5525202F1340213700022202193
:103A6000764809F08DFF00224021754809F088FF53
:103A700007F16003043B734A1A6007F1A003383B67
:103A8000704A1A6007F16003103B6F4A1A606F4A70
:103A90004FF000034FF00004C2E900346C4A4FF0CD
:103AA00000034FF00004C2E900346A4807F00CFF3D
:103AB0000346002B07D007F0D3FE052307F552522B
:103AC00002F136021370634BD3E9003418462146E5
:103AD000FDF78AF8034607F5525202F138021360E7
:103AE00003225D495D4808F0F7F85D4B01221A702A
:103AF0005B4B1A785B4B1A70002307F5525202F1A8
:103B00003602137007F5525303F136031B7807F59D
:103B1000525202F135021370002307F5525202F19E
:103B20002D02137050480AF005FF4D4B1B78002BF7
:103B300000F0B3834A4B00221A7007F1A003243B24
:103B40000022194649480CF0E6FF07F1A003243B88
:103B50009B781A4607F160031C3B9A6007F1A003AB
:103B6000243B5B781A4607F160031C3B5A6007F15F
:103B7000A003243BDB7803F2BC7207F160031C3B1B
:103B80001A6007F160031C3B93E80700FDF7E2FAB7
:103B90000346002B0BD007F160031C3B5B68032B33
:103BA00005D1002307F5525202F12D02137007F5DB
:103BB000525303F12D031B78002B59D107F16003F9
:103BC0001C3B93E80700FDF7C5FA0346002B4FD0D6
:103BD000264B1B689B6803F48023002B48D107F118
:103BE000A003203B01221A7007F1A003203B002212
:103BF0005A7007F1A003203B00229A7007F1A0033E
:103C0000203B0022DA6007F1A003203B4FF4802222
:103C10001A6107F1A003203B0022194613480CF05B
:103C2000B8FD77E08CE9010894E901089CE90108F6
:103C3000A4E90108ACE90108B4E901080000024068
:103C4000001002404F4646002D2D2D008007002019
:103C500068070020D8070020B80700203C06002095
:103C6000B6030020C40300205007002018080020DD
:103C700007F160031C3B93E80700FDF76BFA03466E
:103C8000002B47D1604B1B689B6803F48023002BFB
:103C900040D0012307F5525202F12D02137007F1B3
:103CA000A003203B17221A7007F1A003203B00223B
:103CB0005A7007F1A003203B00229A7007F1A0037D
:103CC000203B0022DA6007F1A003203B00221A61AA
:103CD00007F1A003203B002219464B480CF059FD88
:103CE00007F1A003283B09225A7007F1A003283BE3
:103CF00014229A7007F1A003243BDA7807F1A0039D
:103D0000283BDA7007F1A003283B002219463E4801
:103D10000CF05AFE07F1A0030C3B002219463A486A
:103D20000CF0F4FD07F1A003243B002219463648AD
:103D30000CF0F1FE00BF354B1B78002BFBD0334B52
:103D400000221A70324B9B881846FCF7DBFB2CA331
:103D5000D3E90023FCF750FC03460C4618462146E5
:103D60004FF000022B4BFCF771FD03460C46184642
:103D700021464FF00002284BFCF786FA03460C461A
:103D8000184621464FF00002244BFCF75FFD034626
:103D90000C46184621464FF00002214BFCF776FAFC
:103DA00003460C461F4AC2E90034194B1B8807F52D
:103DB000525202F11C02138007F5525303F11C0307
:103DC0001B88B3F57A6F35D9174B1B681846FCF77B
:103DD000BBFB4FF00002154BFCF756FA03460C46AE
:103DE000134AC2E90034002307F5525202F11A02C5
:103DF0001380002307F5525202F1310213708DE057
:103E00000000000000C8A94018080020B9030020E5
:103E1000980700200000B04000C087400000044028
:103E200000003940C0070020740700200000F03F68
:103E3000B0070020012307F5525202F1310213703E
:103E400007F5525303F11C031B881846FCF75AFB75
:103E500004460D4607F5525303F11C031B88184610
:103E6000FCF750FB02460B46BBA1D1E90001FCF771
:103E70000BFA02460B4620462946FCF7E7FC0346B0
:103E80000C46B94AC2E90034B74B93ED007BB0EE63
:103E9000470AF0EE670A18F0C3FB51EC100BA6A31B
:103EA000D3E90023FCF7A8FB03460C46184621463D
:103EB000A3A3D3E90023FCF7E9F903460C46AB4A78
:103EC000C2E90034A94BD3E900341A4623464FF027
:103ED0000000A749FCF7BAFC03460C4618462146E9
:103EE00099A3D3E90023FCF7CFF903460C46A14A76
:103EF000C2E900349F4BD3E900014FF000029E4B12
:103F0000FCF77AFB03460C4618462146FCF74CFEAC
:103F1000034607F5525202F11A021380974B5B8851
:103F200007F5525202F11802138007F5525303F1BC
:103F300018031B8807EE903AF8EE677A17EE900A9E
:103F4000FCF702FB82A3D3E90023FCF755FB0346F1
:103F50000C4625461C4607F5525303F118031B88EF
:103F600007EE903AF8EE677A17EE900AFCF7ECFA53
:103F700002460B4678A1D1E90001FCF785F902461B
:103F80000B4620462946FCF761FC03460C467C4A5A
:103F9000C2E900347B480AF0CDFC07F1A003243BC2
:103FA0009A7807F1A0032C3B9B789A4213D107F132
:103FB000A003243B5A7807F1A0032C3B5B789A427C
:103FC00009D107F1A003243BDA7807F1A0032C3BC9
:103FD000DB789A4238D007F1A003243B9B781A463D
:103FE00007F160031C3B9A6007F1A003243B5B7858
:103FF0001A4607F160031C3B5A6007F1A003243BFB
:10400000DB7803F2BC7207F160031C3B1A605E4B65
:1040100093ED007B5D4B93ED006B07F160021C3A62
:10402000012302935A4B01935A4B00935A4B07CAF0
:104030009FED4B2BB0EE461AF0EE661AB0EE470A33
:10404000F0EE670AFDF714FB07F1A0032C3B07F124
:10405000A002243A12681A6007F1A0030C3B4C4AF4
:1040600004AC07CA84E807004B4A01AC07CA84E8DD
:1040700007001A6900920FCBFDF795F80346002B55
:1040800040F0908007F5525303F132031B78032B65
:1040900000F0E080032307F5525202F13202137060
:1040A0000121022005F0C6FE0346002B0FD007F5C4
:1040B000525303F137031B78002B08D1374807F020
:1040C00071F94FF47A7007F0A1FD05F05DFE012152
:1040D000012005F0AFFE0346002B0FD007F5525329
:1040E00003F137031B78002B08D12C4807F05AF94D
:1040F0004FF47A7007F08AFD05F046FE284BD3EDA9
:10410000007AB0EE670A05F0EDFE0346002B00F0E2
:10411000A18007F5525303F137031B78002B40F0C1
:1041200099801E4807F03EF94FF47A7007F06EFD53
:1041300005F02AFE8EE000BFB2438DE70406333F50
:1041400083DBB5DCE1796B3F6666666666127140BB
:10415000CDCCCCCCCCCC12400000000000FEAF4057
:104160000000000000000C4068070020D00700207D
:104170000000F03FB0070020000024409807002016
:1041800080070020500700209007002088070020AB
:10419000E8070020FC070020A00700201CE9010818
:1041A0001408002007F5525303F132031B78022B49
:1041B00050D0022307F5525202F132021370C04B65
:1041C0001B88DBB21946022005F034FE0346002BA3
:1041D0000FD007F5525303F137031B78002B08D19A
:1041E000B84807F0DFF84FF47A7007F00FFD05F0DC
:1041F000CBFDB34B1B88DBB21946012005F01AFE3C
:104200000346002B0FD007F5525303F137031B78F9
:10421000002B08D1AB4807F0C5F84FF47A7007F0CF
:10422000F5FC05F0B1FD9FEDA80A05F05BFE034625
:10423000002B0FD007F5525303F137031B78002BE7
:1042400008D1A04807F0AEF84FF47A7007F0DEFC12
:1042500005F09AFD07F5525303F12E031B88013335
:1042600007F5525202F12E02138007F5525303F163
:104270002E031B88772B10D9002307F5525202F129
:104280002E021380002307F5525202F132021370FE
:104290008E48FEF751FDFEF721FD10F0C6FD0346E6
:1042A000012B21D107F5525303F134031B78002B66
:1042B0001AD1642007F0AAFC10F0B7FD0346012BC9
:1042C00012D107F5525303F134031B78002B0BD1A5
:1042D0004FF4FA7007F09AFC10F018FD012307F56F
:1042E000525202F13402137010F09FFD0346002B6E
:1042F00020D1642007F08AFC10F097FD0346002BC4
:1043000018D1002307F5525202F13402137070489D
:104310000CF086FE00226F49002014F0DFFC0346FB
:10432000002B02D06C4B00221A7007F1E003383BDF
:1043300000221A608021694809F00AFB0346012B1C
:1043400040F06F8107F5525303F133031B78002BC4
:1043500040F06781322007F059FC80215F4809F066
:10436000F7FA0346012B40F05C8107F5525303F145
:1043700033031B78002B40F05481012307F5525280
:1043800002F13302137007F16003103B544A92E8C4
:10439000030018600433197007F5525303F1340316
:1043A0001B78002B00F02F8107F1A0030C3B07F1D5
:1043B000A004243C07F1E002343A039207F1E00242
:1043C000383A02926D4603F10C0292E8030085E848
:1043D00003000ECB2068FFF73DF807F5525303F1B9
:1043E00031031B78002B00F08B8007F1E003383B92
:1043F0001B687B6207F1A003243BDB7803F2BC71EE
:10440000396207F1A003243B5B78FB6107F1A0034D
:10441000243B9B78BB6107F1A0030C3B1B787B61BD
:1044200007F1A0030C3B5B783B6107F1A0030C3B59
:104430009B78FB602B4BD3E900562B4BD3E90089CB
:104440001F4B1B88BB60294B1B681846FCF77CF888
:1044500082468B46264B1B887B60264BD3E9001295
:10446000254BD3E9003407F5F0703438CDE9163424
:1044700007F16003043B149307F1A003383B139347
:1044800007F16003103B1293CDE910127C680E9483
:10449000CDE90CABBC680A94CDE90889CDE9065694
:1044A000FC6804943C6903947C690294BC6901949F
:1044B000FC6900943B6A7A6A104916F0E9FB83E0D4
:1044C000F40700201CE9010800000000FC060020A1
:1044D000F808002078E801089C1A0020000C02402F
:1044E000BCE90108D8070020E007002014080020DC
:1044F000CC07002080070020B0070020C4E9010895
:1045000007F1E003383B1B687B6207F1A003243B03
:10451000DB7803F2BC71396207F1A003243B5B78BE
:10452000FB6107F1A003243B9B78BB6107F1A0036B
:104530000C3B1B787B6107F1A0030C3B5B783B6174
:1045400007F1A0030C3B9B78FB60994BD3E9004536
:10455000984BD3E90089984B1B88BB60974B1B682D
:104560001846FBF7F1FF82468B46954B1B881E468B
:10457000944BD3E9001207F5F070343807F160036B
:10458000043B149307F1A003383B139307F1600336
:10459000103B1293CDE910120E96CDE90CABBE681C
:1045A0000A96CDE90889CDE90645FC6804943C6982
:1045B00003947C690294BC690194FC6900943B6A91
:1045C0007A6A814916F064FB07F5F072343A07F114
:1045D000E003343B11461846FEF798FE034607F504
:1045E000525202F11702137007F5525303F11703E9
:1045F0001B78002B15D0754806F0D4FE4FF47A7066
:1046000007F004FB0DE007F5525303F137031B7865
:10461000002B06D16E4806F0C5FE4FF47A7007F005
:10462000F5FA80216B4809F093F90346002B40F01E
:104630006A8107F5525303F133031B78012B40F0D5
:104640006281322007F0E2FA8021624809F080F9A5
:104650000346002B40F0578107F5525303F1330313
:104660001B78012B40F04F81002307F5525202F1D5
:104670003302137007F16003103B574A92E80300BE
:1046800018600433198007F5525303F134031B7883
:10469000002B00F02A8107F1A0030C3B07F1A004D6
:1046A000243C07F1E002343A039207F1E002383A81
:1046B00002926D4603F10C0292E8030085E80300C4
:1046C0000ECB2068FEF7C6FE07F5525303F1310307
:1046D0001B78002B00F0868007F1E003383B1B6855
:1046E0007B6207F1A003243BDB7803F2BC713962E3
:1046F00007F1A003243B5B78FB6107F1A003243B97
:104700009B78BB6107F1A0030C3B1B787B6107F131
:10471000A0030C3B5B783B6107F1A0030C3B9B784B
:10472000FB60234BD3E90056224BD3E90089224B8F
:104730001B88BB60214B1B681846FBF705FF8246B0
:104740008B461F4B1B887B601E4BD3E90012234B0B
:10475000D3E9003407F5F0703438CDE9163407F1A9
:104760006003043B149307F1A003383B139307F154
:104770006003103B1293CDE910127C680E94CDE9D2
:104780000CABBC680A94CDE90889CDE90656FC68F3
:1047900004943C6903947C690294BC690194FC69AB
:1047A00000943B6A7A6A0E4916F072FA7EE000BF06
:1047B000D8070020E0070020F4070020140800209C
:1047C000CC070020800700201CEA01080CE9010842
:1047D00070EA0108000C024078EA0108B0070020E6
:1047E000C4E9010807F1E003383B1B687B6207F16D
:1047F000A003243BDB7803F2BC71396207F1A0030C
:10480000243B5B78FB6107F1A003243B9B78BB61F1
:1048100007F1A0030C3B1B787B6107F1A0030C3B65
:104820005B783B6107F1A0030C3B9B78FB60C44BBA
:10483000D3E90045C34BD3E90089C34B1B88BB6058
:10484000C24B1B681846FBF77FFE82468B46C04B67
:104850001B881E46BF4BD3E9001207F5F0703438B1
:1048600007F16003043B149307F1A003383B139353
:1048700007F16003103B1293CDE910120E96CDE9BB
:104880000CABBE680A96CDE90889CDE90645FC68FF
:1048900004943C6903947C690294BC690194FC69AA
:1048A00000943B6A7A6AAC4916F0F2F907F5F072A7
:1048B000343A07F1E003343B11461846FEF726FD73
:1048C000034607F5525202F11702137007F55253CF
:1048D00003F117031B78002B15D0A04806F062FDEA
:1048E0004FF47A7007F092F90DE007F5525303F197
:1048F00037031B78002B06D1994806F053FD4FF47F
:104900007A7007F083F907F5525303F137031B78E8
:10491000142B3FF607A901A252F823F071490008B1
:10492000255A0008895E000815620008B165000874
:10493000F1680008176B00087B6D00080171000822
:104940007174000809780008077B0008157E0008CC
:10495000BD80000861830008AD8600087F890008DB
:104960008F8C0008938F0008B9930008DD9700082A
:104970007C4B1B78002B00F073837A4B00221A705B
:104980006F4806F0A1FF0346002B08D006F068FF31
:10499000052307F5525202F13602137009E007F5BC
:1049A000525303F135031B7807F5525202F13602D8
:1049B0001370634BD3E9003418462146FCF714F911
:1049C00007EE100A07F5535303F10403D3ED007A01
:1049D00077EE877A07F5535303F10403C3ED007AAA
:1049E000584BD3E9003418462146FCF7FDF807EE92
:1049F000100A07F55353D3ED007A77EE877A07F55F
:104A00005353C3ED007A07F5525303F13E031B885D
:104A1000013307F5525202F13E02138007F552535B
:104A200003F136031B78062B00F2D58001A252F861
:104A300023F000BF8F4A0008034B0008914B000889
:104A40001D4B0008A94B0008C14B0008514A000843
:104A500007F5525303F131031B78002B0CD0424B66
:104A6000D3E9003407F5525000F104001A462346FA
:104A70003E4916F00DF9AEE007F5525303F1040379
:104A80003B4A92E80300186004331970A3E0394BE5
:104A90001B78002B0FD0374B00221A70284BD3E91C
:104AA000003407F5525000F104001A4623463249FB
:104AB00016F0EEF88FE0314B1B78002B10D007F189
:104AC000A0030C3B1B781A4607F1A0030C3B5B7854
:104AD00007F5525000F10400294916F0D9F87AE0A0
:104AE00007F1A0030C3B1B781A4607F1A0030C3B0F
:104AF0005B7807F5525000F10400224916F0C8F81F
:104B000069E0104BD3E9003407F5525000F104007E
:104B10001A4623461C4916F0BBF85CE00B4B1B6899
:104B20001846FBF711FD03460C4607F5525000F1FD
:104B300004001A462346154916F0AAF84BE000BFB8
:104B4000D8070020E0070020F40700201408002008
:104B5000CC070020800700201CEA01080CE90108AE
:104B600070EA0108C4030020B007002080EA0108B1
:104B700088EA01081800002090EA0108B703002025
:104B800098EA0108A4EA0108B0EA0108B8EA0108B5
:104B9000B14B1B881A4607F5525303F10403AF4982
:104BA000184616F075F816E0AD4B1B881A4607F547
:104BB000525303F10403AB49184616F069F80AE0B2
:104BC00007F5525303F10403A74A92E80300186063
:104BD0000433197000BF07F5525303F1040318465C
:104BE00006F0E0FBA14B00221A7007F5525303F1C7
:104BF00036031B78052B14D1002240219C4808F075
:104C0000BFFE07F16003043B9A4A1A60002220218C
:104C1000994808F0B5FE07F1A003383B954A1A60A1
:104C20001EE2964BD3E9004507F5525303F13803D2
:104C30001868FBF789FC02460B4620462946FBF71D
:104C400023FB03460C4618462146FBF7CDFF0346DF
:104C500007F5525202F110021360894B1B68184687
:104C6000FBF772FC854BD3E900341A462346FBF769
:104C700035FF0346002B22D0012240217C4808F05A
:104C80007FFE07F16003043B7E4A126811461980DB
:104C90000233120C1A7001222021774808F070FEAE
:104CA00000224021744808F06BFE07F1A003383B56
:104CB000754A92E80300186004331970C3E1704B21
:104CC00093ED007A714BD3ED007A77EE677A17EEA9
:104CD000900AFBF739FC694BD3E900341A462346A6
:104CE000FBF710FF0346002B2AD0694B93ED007AA7
:104CF000664BD3ED007A77EE277A17EE900AFBF732
:104D000023FC5E4BD3E900341A462346FBF7E6FE4C
:104D10000346002B14D000224021554808F030FEF5
:104D200007F16003043B534A1A60002220215248D5
:104D300008F026FE07F1A003383B4E4A1A6082E1D4
:104D400007F5525303F110031868FBF7FDFB3EA370
:104D5000D3E90023FBF7E0FE0346002B2AD0484BA3
:104D600093ED007A494BD3ED007A77EE677A17EE30
:104D7000900AFBF7E9FB414BD3E900341A4623467E
:104D8000FBF7ACFE0346002B14D00022402138482C
:104D900008F0F6FD07F16003043B364A1A60002272
:104DA0002021354808F0ECFD07F1A003383B314ADB
:104DB0001A6048E107F5525303F110031868FBF736
:104DC000C3FB23A3D3E90023FBF788FE0346002B94
:104DD00060D02B4B93ED007A2C4BD3ED007A77EE1D
:104DE000677A17EE900AFBF7AFFB244BD3E9003448
:104DF0001A462346FBF772FE0346002B4AD00122D7
:104E000040211B4808F0BCFD07F16003043B1D4A2C
:104E10001268114619800233120C1A7001222021E7
:104E2000154808F0ADFD00224021134808F0A8FD08
:104E300007F1A003383B144A92E8030018600433DA
:104E4000197000E1AFF300809A9999999999C93F37
:104E50009A9999999999C9BFF4070020C0EA010865
:104E6000CC070020C8EA0108D0EA0108BA030020F4
:104E7000001002404F46460000000240D8070020C4
:104E800010080020D8EA0108DCEA010878070020B1
:104E9000080800208A4B1B681846FBF755FB894B16
:104EA000D3E900341A462346FBF736FE0346002BAF
:104EB0001ED001224021844808F062FD07F1600302
:104EC000043B824A1268114619800233120C1A7090
:104ED000012220217E4808F053FD012240217C4818
:104EE00008F04EFD07F1A003383B7A4A1A60AAE0A9
:104EF000734B93ED007A784BD3ED007A77EE277AF7
:104F000017EE900AFBF720FB6E4BD3E900341A46EC
:104F10002346FBF7EDFD0346002B2AD06F4B93EDA4
:104F2000007A6D4BD3ED007A77EE677A17EE900A30
:104F3000FBF70AFB634BD3E900341A462346FBF721
:104F4000E1FD0346002B14D0002240215E4808F00A
:104F500017FD07F16003043B614A1A60002220211B
:104F60005B4808F00DFD07F1A003383B5C4A1A606E
:104F700069E007F5525303F110031868FBF7E4FAF0
:104F80004BA3D3E90023FBF7C7FD0346002B2DD02D
:104F90004B4B1B681846FBF7D7FA4A4BD3E9003452
:104FA0001A462346FBF79AFD0346002B1ED001222A
:104FB0004021454808F0E4FC07F16003043B434A04
:104FC0001268114619800233120C1A700122202136
:104FD0003F4808F0D5FC012240213D4808F0D0FCB4
:104FE00007F1A003383B3B4A1A602CE007F5525307
:104FF00003F110031868FBF7A7FA2FA3D3E90023E6
:10500000FBF76CFD0346002B1DD02D4B1B6818468B
:10501000FBF79AFA2B4BD3E900341A462346FBF7E9
:105020005DFD0346002B0ED000222021284808F009
:10503000A7FC00224021244808F0A2FC07F16003ED
:10504000043B274A1A601F4BD3E900341846214617
:10505000FBF7CAFD034607F5525202F1380213600E
:10506000204B1B78002B00F0B3811E4B00221A70DE
:1050700007F5525303F13E031B88002B36D11A4B20
:10508000D3E9003418462146FBF7AEFD034607F589
:10509000535213600B4BD3E9003418462146FBF7FB
:1050A000A3FD034607F5535202F10402136045E0E5
:1050B0009A9999999999C93F9A9999999999C9BF32
:1050C00008080020D807002000100240D8EA010894
:1050D00000000240484F54007807002010080020CC
:1050E0004F464600C5030020E007002007F5525355
:1050F00003F13E031B8807EE903AB8EE677A07F596
:105100005353D3ED006AC6EE877A07F55353C3EDC8
:10511000007A07F5525303F13E031B8807EE903ADD
:10512000B8EE677A07F55353D3ED006AC6EE877A77
:1051300007F5535303F10403C3ED007A002307F589
:10514000525202F13E02138007F5525303F1340329
:105150001B78002B00F0228107F1A0030C3B07F124
:10516000A004243C07F1E002343A039207F1E00284
:10517000383A02926D4603F10C0292E8030085E88A
:1051800003000ECB2068FEF765F907F5525303F1D3
:1051900031031B78002B6AD007F1E003383B1B6812
:1051A0007B6207F1A003243BDB7803F2BC71396218
:1051B00007F1A003243B5B78FB6107F1A003243BCC
:1051C0009B78BB6107F1A0030C3B1B787B6107F167
:1051D000A0030C3B5B783B6107F1A0030C3B9B7881
:1051E000FB60644BD3E90056634BD3E90089634B02
:1051F0001B88BB60624B1B681846FBF7A5F982460B
:105200008B46604B1B887B605F4BD3E900125F4B82
:10521000D3E9003407F5F0703438CDE9163407F1DE
:105220006003043B149307F1A003383B139307F189
:105230006003103B1293CDE910127C680E94CDE907
:105240000CABBC680A94CDE90889CDE90656FC6828
:1052500004943C6903947C690294BC690194FC69E0
:1052600000943B6A7A6A4A4915F012FD63E007F13F
:10527000E003383B1B687B6207F1A003243BDB782B
:1052800003F2BC71396207F1A003243B5B78FB6138
:1052900007F1A003243B9B78BB6107F1A0030C3B03
:1052A0001B787B6107F1A0030C3B5B783B6107F146
:1052B000A0030C3B9B78FB602E4BD3E900452E4BA3
:1052C000D3E900892D4B1B88BB602D4B1B6818460A
:1052D000FBF73AF982468B462A4B1B881E462A4B1F
:1052E000D3E9001207F5F070343807F16003043B8E
:1052F000149307F1A003383B139307F16003103BAD
:105300001293CDE910120E96CDE90CABBE680A9649
:10531000CDE90889CDE90645FC6804943C6903940D
:105320007C690294BC690194FC6900943B6A7A6AC6
:10533000184915F0ADFC07F5F072343A07F1E003B7
:10534000343B11461846FDF7E1FF034607F552527C
:1053500002F11702137007F5525303F117031B787C
:10536000002B29D00C4806F01DF84FF47A7006F097
:105370004DFC21E0D8070020E0070020F4070020C2
:1053800014080020CC07002080070020B007002070
:10539000C4E901081CEA01080CE9010807F55253A9
:1053A00003F137031B78002B06D1CC4805F0FAFF38
:1053B0004FF47A7006F02AFC4FF0000307F55352C1
:1053C00002F1040213604FF0000307F5535213601B
:1053D000C34B1B78002B0ED0C14B00221A7007F173
:1053E000E003383B00221A60BE4805F0DBFF4FF4B3
:1053F000FA6006F00BFCBC4B1B78002B47D0BA4B75
:1054000000221A70002307F5535202F10C021370A8
:105410002D2307F5525213702D2307F5525202F136
:10542000010213702D2307F5525202F1020213708C
:105430002D2307F5525202F10302137007F553535F
:1054400003F10C03197807F5525301221846FDF7B2
:10545000CFFE00224021A54808F092FA07F1600330
:10546000043BA34A1A6000222021A24808F088FACF
:1054700007F1A003383B9E4A1A60012307F55252F8
:1054800002F1370213709C4B41F288321A809B4B19
:105490001B78002B02D0994B00221A70984B1B7876
:1054A000002B00F06581964B00221A7007F55253CD
:1054B00003F136031B78082B00F24F8101A252F84A
:1054C00023F000BF93550008CD550008475600084B
:1054D0000F5600087F56000845570008E954000899
:1054E0002155000859550008072307F5525202F1CB
:1054F0003502137007F5525303F135031B7807F596
:10550000525202F1360213707E4B1A687D4B5B6873
:1055100007F5525000F104007B4915F0B9FB1CE17E
:10552000082307F5525202F13502137007F5525362
:1055300003F135031B7807F5525202F1360213705E
:10554000724B1A68714B5B6807F5525000F104000A
:105550006D4915F09DFB00E1002307F5525202F161
:105560003502137007F5525303F135031B7807F525
:10557000525202F136021370654BD3E9003407F53D
:10558000525000F104001A462346624915F080FB90
:10559000E3E0012307F5525202F13502137007F5DB
:1055A000525303F135031B7807F5525202F13602CC
:1055B0001370594BD3E9003407F5525000F1040041
:1055C0001A462346554915F063FBC6E0032307F549
:1055D000525202F13502137007F5525303F13503AD
:1055E0001B7807F5525202F1360213704C4B1B68C0
:1055F0001846FAF7A9FF03460C4607F5525000F18A
:1056000004001A462346474915F042FBA5E0022351
:1056100007F5525202F13502137007F5525303F1A8
:1056200035031B7807F5525202F1360213703E4BD8
:105630001B881A4607F5525303F104033B491846E9
:1056400015F026FB89E0042307F5525202F13502DA
:10565000137007F5525303F135031B7807F55252C7
:1056600002F136021370324B1B881A4607F552536B
:1056700003F104032F49184615F00AFB6DE00623D9
:1056800007F5525202F13502137007F5525303F138
:1056900035031B7807F5525202F13602137007F5F5
:1056A000525303F131031B78002B0CD0224BD3E96A
:1056B000003407F5525000F104001A4623461F49F2
:1056C00015F0E6FA49E007F5525303F104031C4ACA
:1056D00092E803001860043319703EE070EA010894
:1056E000C7030020E4EA0108E003002000100240A4
:1056F0004F46460000000240E80300203C00002026
:10570000D8030020A007002098EA0108E80700203D
:10571000D807002090EA0108E0070020B0EA01085D
:1057200014080020B8EA0108F4070020C0EA0108C4
:10573000CC070020C8EA0108B007002080EA010871
:1057400088EA010807F5525303F10403CE4A92E8B0
:10575000030018600433197000BFCC4B41F288324B
:105760001A8007F5525303F10403184605F01AFE98
:10577000C74B1B78002B02D0C54B00221A70C54BBB
:105780001B78002B00F03081C24B00221A7007F505
:10579000525303F136031B78082B00F21A8101A241
:1057A00052F823F0C957000801580008755800083E
:1057B0003B580008B7580008BD590008EF580008CA
:1057C0002759000885590008082307F5525202F1AD
:1057D0003502137007F5525303F135031B7807F5B3
:1057E000525202F136021370AB4B1A68AA4B5B6837
:1057F00007F5525000F10400A84915F049FAE8E015
:10580000002307F5525202F13502137007F5525387
:1058100003F135031B7807F5525202F1360213707B
:105820009F4BD3E9003407F5525000F104001A46AB
:1058300023469C4915F02CFACBE0012307F5525280
:1058400002F13502137007F5525303F135031B784B
:1058500007F5525202F136021370934BD3E900342C
:1058600007F5525000F104001A4623468F4915F0FF
:105870000FFAAEE0032307F5525202F1350213701E
:1058800007F5525303F135031B7807F5525202F125
:1058900036021370864B1B681846FAF755FE03460E
:1058A0000C4607F5525000F104001A462346814980
:1058B00015F0EEF98DE0022307F5525202F13502A0
:1058C000137007F5525303F135031B7807F5525255
:1058D00002F136021370784B1B881A4607F55253B3
:1058E00003F104037549184615F0D2F971E0042359
:1058F00007F5525202F13502137007F5525303F1C6
:1059000035031B7807F5525202F1360213706C4BC7
:105910001B881A4607F5525303F1040369491846D8
:1059200015F0B6F955E0062307F5525202F135029B
:10593000137007F5525303F135031B7807F55252E4
:1059400002F13602137007F5525303F131031B784D
:10595000002B0CD05C4BD3E9003407F5525000F11A
:1059600004001A462346594915F092F931E007F52B
:10597000525303F10403564A92E8030018600433BB
:10598000197026E0072307F5525202F13502137011
:1059900007F5525303F135031B7807F5525202F114
:1059A000360213704B4B1A684A4B5B6807F552502E
:1059B00000F10400394915F06BF90AE007F552537C
:1059C00003F10403304A92E80300186004331970AD
:1059D00000BF07F5525303F10403184605F0E2FC3B
:1059E0002A4B41F288321A803B4B1B78002B02D0A5
:1059F000394B00221A70394B1B78002B02D0374BE1
:105A000000221A70214B1B88002B44F0E9801F4BA9
:105A100000221A80002307F5525202F13602137059
:105A200004F0DEB8FDF7C2FB194B1B78002B02D047
:105A3000174B00221A70284B1B78002B02D0264BE4
:105A400000221A70264B1B78002B00F09480244B08
:105A500000221A700D4B41F288321A8007F5535319
:105A600003F10C031B7807F5535202F12002134493
:105A700013F8603C2D2B35D1002307F5535202F16A
:105A80000B02137046E000BFD0EA0108E8030020D3
:105A9000D9030020D0030020E807002098EA01087D
:105AA000D807002090EA0108E0070020B0EA0108CA
:105AB00014080020B8EA0108F4070020C0EA010831
:105AC000CC070020C8EA0108B007002080EA0108DE
:105AD00088EA0108A0070020D1030020C8030020A5
